:020000040800F2
:100000000004002047010008F1020008F302000884
:10001000F7020008FB020008FF02000800000000D1
:1000200000000000000000000000000003030008C2
:10003000050300080000000007030008090300088A
:1000400067010008670100086701000867010008F0
:1000500067010008670100086701000867010008E0
:1000600067010008670100086701000867010008D0
:1000700067010008670100086701000867010008C0
:1000800067010008670100086701000867010008B0
:1000900067010008670100086701000867010008A0
:1000A0006701000867010008670100086701000890
:1000B00077050008A1050008CB05000867010008C6
:1000C0006701000867010008670100086701000870
:1000D00067010008D10300086701000867010008F4
:1000E0006701000867010008670100086701000850
:1000F0006701000867010008670100086701000840
:100100006701000867010008F5050008670100089D
:10011000670100086701000867010008670100081F
:10012000670100086701000867010008670100080F
:10013000DFF80CD002F0E0F900480047D5020008D3
:10014000E0020020704708488047084981F308888A
:1001500007480047FEE7FEE7FEE7FEE7FEE7FEE7AB
:10016000FEE7FEE7FEE7FEE745010008E0020020AB
:10017000310100080146002002E000220A54401C20
:100180000828FADB70478CB04FF080455348089040
:100190002814079051480690E813059050480490A1
:1001A000401503904E48029000150190DDE90132A0
:1001B000DDE9031000F0AAF803231022DDE907109F
:1001C00000F062FA03230422DDE9051000F05CFA76
:1001D0004FF6FF724721284600F030F900212846EB
:1001E00001F0BDFA75E000200B900D2000F0D3F86F
:1001F0000A2000F0D0F8DDE9071000F0B4FB14206D
:1002000000F00DFADDE9071000F0AFFB0020A88434
:10021000344C08E034B92D2000F0BDF8312000F056
:10022000BAF806E0641EDDE9051000F082FB002844
:10023000F0D000BF012C49D90121284601F08FFAE6
:10024000284C08E034B92D2000F0A5F8312000F04A
:10025000A2F80AE0641EDDE9051000F06AFB01283F
:1002600003D1A88D0A380028ECD100BF012C27D972
:100270000021284601F073FAA88C0B900B9801F02E
:10028000DAFE07460022184B01F066FE824601F0B6
:10029000F2FE814609A8FFF76DFF484601F0D8FE3F
:1002A00007463A460B4611A109A802F069F9002653
:1002B00004E009A9885D00F06EF8761C082EF8D3DA
:1002C0000D2000F068F80A2000F065F8C82000F062
:1002D000C1F988E701F016FEFFF755FF0010014055
:1002E00000080140008D270000004D4025670000F8
:1002F000704700BFFEE700BFFEE700BFFEE700BF9C
:10030000FEE770477047704770470000F0B585B052
:1003100006460F4614461D464FF4E06001F012FDFC
:1003200025208DF8000000208DF8020001208DF8B6
:100330000300684601F00BFD0121880300F002FD77
:10034000032318223946304600F09EF90323042285
:100350002946204600F098F94FF4E1300190002042
:10036000ADF80800ADF80A00ADF80C00ADF81000CB
:100370000C20ADF80E0001A92E4800F090FD0122DE
:1003800040F225512B4800F004FE0121294800F0DD
:10039000F4FD05B0F0BD10B504462146254800F037
:1003A00054FE00BF8021234800F0A6FE0028F9D0AB
:1003B00010BD10B5044620211E4800F09DFE08B96E
:1003C000002010BD1B4800F044FE20700120F8E71B
:1003D00038B50020009010E000240BE0164850F8DB
:1003E000240000B908E0144850F824109DF80000DB
:1003F0008847641C0A2CF1DB00BF6846FFF7D9FF71
:100400000028E9D138BD014600200EE00A4A52F822
:1004100020208A4200D17047074A52F820201AB99A
:10042000054A42F82010F6E7401C0A28EEDB00BF20
:10043000F1E700000038014018000020FEB5044636
:100440000D461646B4F1804F04D10121084600F054
:1004500086FC16E08548844204D10121022000F088
:100460007EFC0EE08248844204D10121042000F089
:1004700076FC06E07F48844203D10121082000F089
:100480006EFC0121204601F059FCADF80460ADF886
:1004900000500020ADF80600ADF802006946204685
:1004A00000F0D7FE01221146204601F073F9012128
:1004B000204601F054F9FEBD2DE9F84304460E46EE
:1004C00017461D46DDE908893A4631462046FFF7C2
:1004D000B5FF284601F036FCB4F1804F03D11C2053
:1004E0008DF8000013E06148844203D11D208DF88F
:1004F00000000CE05E48844203D11E208DF800000D
:1005000005E05C48844202D132208DF800008DF86D
:1005100001808DF8029001208DF80300684601F0FB
:1005200016FCBDE8F88310B502460B46B2F1804FC9
:1005300001D151480DE04D4CA24201D14F4808E095
:100540004B4CA24201D14E4803E04A4CA24200D19A
:100550004C4800210BE050F821409C4200D110BDD6
:1005600050F8214014B940F82130F8E7491C0A2915
:10057000F1DB00BFF3E710B50121880701F0DEFBD6
:10058000002409E03C4850F8240000B906E03A494C
:1005900051F824008047641C0A2CF3DB00BF10BD17
:1005A00010B50121314801F0C9FB002409E03348AE
:1005B00050F8240000B906E0304951F82400804783
:1005C000641C0A2CF3DB00BF10BD10B501212848C4
:1005D00001F0B4FB002409E0294850F8240000B9D8
:1005E00006E0274951F824008047641C0A2CF3DBFD
:1005F00000BF10BD10B501211E4801F09FFB002473
:1006000009E0204850F8240000B906E01D4951F8DF
:1006100024008047641C0A2CF3DB00BF10BD014698
:1006200001EBC1024FF0E0235A6100229A610122DE
:100630001A6100BF4FF0E022106900F001021AB108
:1006400000F48032002AF5D000224FF0E0231A6136
:100650009A61704730B50446002504E04FF47A7083
:10066000FFF7DDFF6D1CA542F8D330BD000400404C
:1006700000080040000C00404000002068000020FE
:1006800090000020B8000020F8B504460D4616463C
:100690001F46264884420FD12548007800F001000B
:1006A00050B90121042000F04DFB2148008840F0A2
:1006B00001001F49088024E01E4884420FD11C48D5
:1006C000007800F0020050B90121082000F03AFB48
:1006D0001748008840F002001549088011E01648CC
:1006E00084420ED11248007800F0040048B901217C
:1006F000102000F027FB0E48008840F004000C4951
:100700000880ADF800508DF803608DF802706946DE
:10071000204600F07BF8F8BD70B504460D46032373
:10072000102229462046FFF7AFFF70BD00080140A8
:1007300000000020000C01400010014010B50446EC
:10074000C649601A8C422FD009DCC548204480B1CC
:10075000B0F5806F16D0B0F5006F4AD11BE0B0F550
:10076000806F2AD0B0F5006F30D0B0F5406F40D127
:1007700035E00121042000F0FFFA0021042000F000
:10078000FBFA37E00121082000F0F6FA00210820EA
:1007900000F0F2FA2EE00121102000F0EDFA002125
:1007A000102000F0E9FA25E00121202000F0E4FA11
:1007B0000021202000F0E0FA1CE00121402000F0A0
:1007C000DBFA0021402000F0D7FA13E0012180205D
:1007D00000F0D2FA0021802000F0CEFA0AE00121D8
:1007E000080200F0C9FA00214FF4807000F0C4FA4A
:1007F00000E000BF00BF10BD10B50121084600F0A9
:10080000BBFA0021012000F0B7FA10BD2DE9F0413C
:10081000024600250026002000230024002791F82E
:1008200003C00CF00F0591F803C00CF0100CBCF1E4
:10083000000F03D091F802C04CEA050591F800C002
:10084000BCF1000F31D0146800202BE04FF0010CF8
:100850000CFA00F3B1F800C00CEA03069E4220D166
:1008600083004FF00F0C0CFA03F7BC4305FA03FCAE
:100870004CEA040491F803C0BCF1280F06D14FF0F4
:10088000010C0CFA00FCC2F814C00AE091F803C095
:10089000BCF1480F05D14FF0010C0CFA00FCC2F876
:1008A00010C0401C0828D1D31460B1F800C0BCF1BE
:1008B000FF0F34DD546800202EE000F1080C4FF0EB
:1008C000010808FA0CF3B1F800C00CEA03069E42D6
:1008D00021D183004FF00F0C0CFA03F7BC4305FA4B
:1008E00003FC4CEA040491F803C0BCF1280F05D1C5
:1008F00000F1080C08FA0CF8C2F8148091F803C053
:10090000BCF1480F07D100F1080C4FF0010808FABC
:100910000CF8C2F81080401C0828CED35460BDE803
:10092000F0814FF6FF710180022181700421C170B6
:1009300070470246002093680B400BB1012000E095
:10094000002070470146886880B270470246002048
:10095000D3680B400BB1012000E000207047014636
:10096000C86880B2704701617047416170470AB141
:10097000016100E041617047C16070474FF480320F
:100980000A4382618161826182698269704702469D
:100990000020344B18684FF68073184040EA02106C
:1009A0000843304B186070472F49C8617047F0B555
:1009B0000A4600230024002100252A4E7168C0F356
:1009C000034583B200F44016B6F5401F08D121F06C
:1009D0007061244E766826F07066224F7E6012E0C9
:1009E00000F48016B6F5801F06D1032606FA05F43A
:1009F000A14341F0706106E0460D360103FA06F6A8
:100A0000B14341F0706122B1460D360103FA06F69A
:100A10003143144E7160F0BD30B500228B071C0FBE
:100A20000F2303FA04F20F4B08338C1053F82430D1
:100A300093430C4C08348D1044F8253023468C1019
:100A400053F824308C07240F00FA04F42343054C98
:100A500008348D1044F8253030BD000000140140EA
:100A600000F8FEBF0000014000002042DE480068A0
:100A700040F00100DC49086008464068DB49084056
:100A8000D949486008460068D9490840D6490860F5
:100A90000846006820F4802008600846406820F47A
:100AA000FE004860002088607047CF49096821F443
:100AB0008031CD4A11601146096821F4802111600E
:100AC000B0F5803F03D0B0F5802F0ED106E0C649C7
:100AD000096841F48031C44A116007E0C2490968DD
:100AE00041F4A021C04A116000E000BF00BF704780
:100AF00010B501460022002300204A11012A02D12C
:100B0000B94C236806E0022A02D1B74C236A01E0FF
:100B1000B54C636A01F01F02012494401C400CB1E3
:100B2000012000E0002010BD38B500200090002416
:100B3000002500BF3120FFF7DBFF05460098401C71
:100B400000901DB90098B0F5A06FF3D13120FFF7E8
:100B5000CFFF08B1012400E00024204638BD014643
:100B60000020A14A106820F0F80040EAC10010609F
:100B70007047A04908607047024600209A4B5868A9
:100B800020F47C1042EA01031843974B58607047E9
:100B900098490866704701460020934A506820F043
:100BA00003000843506070478F48406800F00C0015
:100BB0007047014600208C4A506820F0F00008433E
:100BC0005060704701460020874A506820F4E0607A
:100BD00008435060704701460020834A506820F463
:100BE000605040EAC1005060704729B17E4A527A95
:100BF00002437D4B5A7204E07B4A527A82437A4B1D
:100C00005A7270477B49D83108607047014600200E
:100C1000754A506820F440400843506070470021F6
:100C2000714A20321170704A82F82010012802D0D7
:100C300004280AD104E001216B4A2032117005E03A
:100C40000521694A2032117000E000BF00BF7047E3
:100C50006949086070476449096A0143624A116240
:100C60007047654944390860704730B5002100225B
:100C7000002400235C4D6D6805F00C0121B10429AE
:100C800005D0082923D105E05C4D056022E05B4DCD
:100C900005601FE0544D6D6805F47012022505EBE8
:100CA0009242514D6D6805F480341CB9544D554342
:100CB00005600BE04C4D6D6805F400351DB1504DDD
:100CC0005543056002E04D4D5543056002E04B4D34
:100CD000056000BF00BF444D6D6805F0F0010909D3
:100CE000484D6B5C0568DD4045603F4D6D6805F41F
:100CF000E061090A434D6B5C4568DD4085603A4D13
:100D00006D6805F46051C90A3E4D6B5C4568DD4075
:100D1000C560354D6D6805F44041890B3A4D6B5CFB
:100D2000C568B5FBF3F5056130BD29B12E4A52699E
:100D300002432D4B5A6104E02B4A526982432A4BED
:100D40005A61704729B1284A92690243264B9A6139
:100D500004E0254A92698243234B9A61704729B186
:100D6000214AD2690243204BDA6104E01E4AD2696B
:100D700082431D4BDA61704729B11B4AD268024396
:100D8000194BDA6004E0184AD2688243164BDA60E5
:100D9000704729B1144A12690243134B1A6104E0E7
:100DA000114A12698243104B1A6170471249403947
:100DB000086070470F49C86470470B49C871704795
:100DC0000948406A40F08070074948627047014610
:100DD0000020054A92680A400AB1012000E0002084
:100DE0007047014988727047001002400000FFF808
:100DF000FFFFF6FE000042428004424200127A00E9
:100E000000093D00020000201200002010B5044639
:100E1000D749601A8C422BD006DCD648204498B1C2
:100E2000B0F5806F38D119E0B0F5806F2AD0B0F5F9
:100E30006C4F31D101218803FFF79EFF00214FF451
:100E40008040FFF799FF28E001214804FFF7A1FF48
:100E500000214FF40030FFF79CFF1EE001218804C1
:100E6000FFF797FF00214FF48020FFF792FF14E077
:100E70000121C804FFF78DFF00214FF40020FFF788
:100E800088FF0AE001210805FFF783FF00214FF4E6
:100E90008010FFF77EFF00E000BF00BF10BD2DE90E
:100EA000F04786B005460E460024A24600BF00BFAC
:100EB00000272F462C8A4CF6FF700440F08804432C
:100EC0002C82AC894EF6F3100440B0883189084377
:100ED000718908430443AC81AC8A4FF6FF4004405B
:100EE000B0890443AC8201A8FFF7BFFEA248874245
:100EF00002D1DDF810A001E0DDF80CA00AEBCA0079
:100F000000EB0A1031688900B0FBF1F86420B8FBEF
:100F1000F0F004012009642101FB1089322000EB6C
:100F20000910B0FBF1F000F00F0004432C8106B073
:100F3000BDE8F0874FF41651016000218180C18027
:100F400001810C21418100218181704710B5024649
:100F50000020108A4FF2FF0318400B884C8823436F
:100F60008C882343CC8823431843108210BD002172
:100F7000018041808180C180704721B1828942F423
:100F80000052828104E082894DF6FF731A4082810B
:100F90007047F0B5034600240026002500201846BF
:100FA000C1F3421401F01F06012707FA06F5012CD0
:100FB00001D10C3004E0022C01D1103000E01430DB
:100FC0001AB107682F43076002E00768AF43076064
:100FD000F0BD1AB1838A0B43838202E0838A8B437C
:100FE00083827047028A4FF6F0731A400282028AA7
:100FF0000A430282704782894FF2FF731A4082814E
:1010000082890A438281704721B1828942F00202BB
:10101000828104E082894FF6FD731A408281704715
:10102000028A4FF6DF731A400282028A0A43028262
:10103000704721B1028A42F48042028204E0028AAF
:101040004BF6FF731A4002827047C1F30802828098
:10105000704701468888C0F308007047818941F0D5
:10106000010181817047028BD2B20283028B42EA76
:10107000012202837047028B02F47F420283028BBB
:101080000A430283704721B1828A42F020028282A1
:1010900004E0828A4FF6DF731A408282704721B1E2
:1010A000828A42F01002828204E0828A4FF6EF7355
:1010B0001A408282704721B1828A42F008028282FD
:1010C00004E0828A4FF6F7731A4082827047828A60
:1010D0004FF6FB731A408282828A0A4382827047EB
:1010E00021B1828A42F00202828204E0828A4FF6B3
:1010F000FD731A40828270470246002013880B401D
:101100000BB1012000E000207047CA430280704705
:1011100070B502460B460024002100250020C3F3D1
:10112000421503F01F01012606FA01F1012D02D13B
:101130009689314006E0022D02D1168A314001E045
:10114000968A31401C12012606FA04F416883440AF
:1011500011B10CB1012000E0002070BD10B50022DB
:1011600000230A1201249440A3B2DC43048010BD82
:10117000004C004000BCFFBF0038014010B50446E1
:10118000F749601A8C4245D00CDCB4F1804F1DD079
:10119000F448204418B3B0F5806F29D0B0F5006F43
:1011A00054D12EE0B0F5806F3DD0B0F58E3F03D026
:1011B000B0F5923F4AD13FE00121C802FFF7DCFDC4
:1011C00000214FF40060FFF7D7FD40E00121084601
:1011D000FFF7DFFD00210120FFF7DBFD37E00121F4
:1011E0000220FFF7D6FD00210220FFF7D2FD2EE0FE
:1011F00001210420FFF7CDFD00210420FFF7C9FDE8
:1012000025E001210820FFF7C4FD00210820FFF799
:10121000C0FD1CE001211020FFF7BBFD00211020C4
:10122000FFF7B7FD13E001212020FFF7B2FD0021F9
:101230002020FFF7AEFD0AE001214803FFF79CFDE7
:1012400000214FF40050FFF797FD00E000BF00BF02
:1012500010BD028802F08F020280CA884B881A43B0
:1012600003881A4302808A8882850A880285BE4ADA
:10127000904202D0BD4A904201D10A7A02860122F0
:101280008282704770B5002400220023058C4FF63F
:10129000FE7635400584028C8388048B4FF68F756B
:1012A0002C400D882C43751E2A400D892A434D88F9
:1012B0002A43CD888586AC4DA84202D0AB4DA842CA
:1012C00013D14FF6F7752A404D892A434FF6FB7527
:1012D0002A408D882A4347F6FF652B4047F6FF5585
:1012E0002B408D892B43CD892B438380048302843B
:1012F00070BD70B5002400220023058C4FF6EF76F8
:1013000035400584028C8388048B48F6FF752C4099
:101310000D884FF6FF7606EA05252C434FF6DF755C
:101320002A400D8906EA05152A434D8806EA051567
:101330002A43CD8805878C4DA84202D08B4DA84208
:101340001DD14FF67F752A404D894FF6FF7606EA8C
:1013500005152A434FF6BF752A408D8806EA051504
:101360002A4347F6FF352B4047F2FF752B408D8906
:1013700006EA85052B43CD8906EA85052B43838044
:101380000483028470BD70B5002400220023058C04
:101390004FF6FF6635400584028C8388848B4FF6B8
:1013A0008F752C400D882C434FF6FF552A400D8930
:1013B0004FF6FF7606EA05252A434D8806EA0525FD
:1013C0002A43CD888587684DA84202D0674DA84240
:1013D0001DD14FF2FF752A404D894FF6FF7606EA80
:1013E00005252A434FF6FF352A408D8806EA052554
:1013F0002A4346F6FF752B4045F6FF752B408D8935
:1014000006EA05152B43CD8906EA05152B43838093
:101410008483028470BD70B5002400220023058CF3
:101420004EF6FF7635400584028C8388848B48F61F
:10143000FF752C400D884FF6FF7606EA05252C43F4
:101440004DF6FF752A400D8906EA05352A434D8879
:1014500006EA05352A43CD88A0F84050424DA842FF
:1014600002D0424DA84207D1C3F30D038D894FF638
:10147000FF7606EA85152B4383808483028470BD42
:10148000828B4FF2FF331A408283828B4FF6FF73B9
:1014900003EA01231A4382837047F0B50C461546D0
:1014A000002100220026078C4EF6FF7C07EA0C077D
:1014B0000784818B028C4FF6FF7707EA043640F6EB
:1014C000FF4739404FF6FF7707EA05274FF6FF7CC5
:1014D0000CEA033C47EA0C0739434DF6FF773A40E4
:1014E00046F480573A4381830284F0BD828B4FF6E5
:1014F000F3731A408283828B0A4382837047F0B56C
:101500000C461546002100220026078C4FF6FF6C82
:1015100007EA0C070784818B028C4FF6FF7707EAF6
:1015200004264FF60C7739404FF6FF7707EA03178A
:101530002F4339434FF6FF573A4046F480773A43FA
:1015400081830284F0BD028B4FF2FF331A40028385
:10155000028B4FF6FF7303EA01231A43028370479D
:101560000010004000FCFFBF002C0140003401408F
:10157000F0B50C461546002100220026078C4FF6D8
:10158000EF7C07EA0C070784018B028C4FF6FF778C
:1015900007EA041640F6FF4739404FF6FF7707EA9F
:1015A000033739434FF6FF7707EA052739434FF6EC
:1015B000DF773A4046F010073A4301830284F0BDDA
:1015C000028B4FF6F3731A400283028B0A430283A5
:1015D0007047F0B50C46154600210022068C4FF6E8
:1015E000FE773E400684018B028C4FF60C7631402C
:1015F0007E1C06EA03162E4331437E1E324044F021
:101600000106324301830284F0BD70B505460C46E5
:10161000208850B92389A28861882846FFF7D9FF1E
:10162000E1882846FFF7CCFF25E0208804280AD16E
:101630002389A28861882846FFF79AFFE188284617
:10164000FFF781FF17E0208808280AD12389A288A4
:1016500061882846FFF753FFE1882846FFF746FFD9
:1016600009E02389A28861882846FFF716FFE188F0
:101670002846FFF705FF70BD2DE9F04105460C46F1
:1016800000260127608808B9022600E00026A0880D
:10169000012801D1022700E001272088A0B9238971
:1016A000A28861882846FFF794FFE1882846FFF763
:1016B00087FF23893A4631462846FFF759FFE188DC
:1016C0002846FFF740FF13E02389A2886188284657
:1016D000FFF74EFFE1882846FFF735FF23893A469A
:1016E00031462846FFF775FFE1882846FFF768FF77
:1016F000BDE8F0810A884B881A438B881A43CB884F
:101700001A430B891A434B891A438B891A43A0F851
:10171000442070474FF6FF71818000210180C18015
:101720004180017270470021018041808180C18029
:10173000018141818181C181704700210180418007
:10174000012181800021C180018170470021018039
:1017500041808180C180018141818181704721B1B7
:10176000028842F00102028004E0028840F2FE3367
:101770001A400280704731B1B0F8442042F4004270
:10178000A0F8442005E0B0F84420C2F30E02A0F80F
:10179000442070471AB183890B43838102E0838917
:1017A0008B43838170478182704741EA0203A0F82E
:1017B000483070471AB183890B43838102E08389E3
:1017C0008B438381704701894FF6F8721140018184
:1017D00070470A46002101894FF68F731940114363
:1017E0000181704730B504460D4629462046FFF773
:1017F000F0FF208940F00700208130BD2DE9F04145
:1018000004460D4616461F46602D06D13B46012272
:1018100031462046FFF7ACFE05E03B46012231464B
:101820002046FFF7D6FE29462046FFF7D2FF208943
:1018300040F007002081BDE8F08170B50C46002122
:101840000189C9B244EA02054FF6FF7606EA03268B
:1018500035432943018170BD2DE9F04105460E460F
:1018600017469846002443463A4631462846FFF735
:10187000E4FF2C894FF6F870044044F007044FF65B
:101880008F70044044F070042C81BDE8F081F0B505
:1018900004460D4616461F463B463246294620461C
:1018A000FFF7CBFF208940F480402081F0BD018507
:1018B000828270470A460021018840F28F33194026
:1018C000114301807047F0B50C4615461E460021B5
:1018D000002200230189028B038C4FF6F8773940F0
:1018E00021434FF6FC473A4040F201173A434FF686
:1018F000DD773B404FF6FF7707EA06172F433B4360
:10190000018102830384F0BD0A460021018B4FF65A
:101910008F7319401143018370470A460021018BE0
:1019200048F6FF7319404FF6FF7303EA0223194389
:10193000018370470A460021818B4FF68F7319404F
:101940001143818370470A460021818B48F6FF735B
:1019500019404FF6FF7303EA02231943818370474E
:1019600021B1028842F08002028004E0028840F245
:101970007F331A400280704721B1828842F004020E
:10198000828004E082884FF6FB731A4082807047A1
:1019900021B1828842F00802828004E082884FF6FA
:1019A000F7731A408280704721B1828842F00102A9
:1019B000828004E082884FF6FE731A40828070476E
:1019C0000A460021018B4FF6F7731940114301833A
:1019D00070470A460021018B4FF2FF7319404FF602
:1019E000FF7303EA02231943018370470A4600216B
:1019F000818B4FF6F77319401143818370470A4674
:101A00000021818B4FF2FF7319404FF6FF7303EAF9
:101A100002231943818370470A460021018B4FF648
:101A2000FB7319401143018370470A460021018B63
:101A30004FF6FF3319404FF6FF7303EA02231943B1
:101A4000018370470A460021818B4FF6FB731940D2
:101A50001143818370470A460021818B4FF6FF3383
:101A600019404FF6FF7303EA02231943818370473D
:101A70000A460021018B4FF67F7319401143018301
:101A800070470A460021018BC1F30E014FF6FF7328
:101A900003EA02231943018370470A460021818B20
:101AA0004FF67F7319401143818370470A46002126
:101AB000818BC1F30E014FF6FF7303EA0223194332
:101AC000818370470A460021018C4FF6FD7319404F
:101AD0001143018470470A460021018C4FF6F773C9
:101AE00019401143018470470A460021018C4FF6CA
:101AF000DF7319404FF6FF7303EA021319430184A1
:101B000070470A460021018C4FF67F7319404FF64B
:101B1000FF7303EA02131943018470470A46002148
:101B2000018C4FF6FF5319404FF6FF7303EA02236F
:101B30001943018470470A460021018C4FF2FF735C
:101B400019404FF6FF7303EA0223194301847047DB
:101B50000A460021018C4DF6FF7319404FF6FF73C2
:101B600003EA023319430184704710B5038C012442
:101B70008C40A3430384038C02FA01F4A4B22343F0
:101B8000038410BD10B5038C04248C40A34303844C
:101B9000038C02FA01F4A4B22343038410BD30B5D0
:101BA000038C01248C40A343038409B1082918D174
:101BB00000F1180303EB61031B684FF68F74234099
:101BC00000F1180404EB6104236000F1180303EB37
:101BD00061031B68134300F1180404EB61042360E4
:101BE0001FE00B1FC3F34E0400F118031B5948F606
:101BF000FF7423400C1FC4F34E0500F11804635119
:101C00000B1FC3F34E0400F118031B594FF6FF746A
:101C100004EA022423430C1FC4F34E0500F1180408
:101C2000635130BD21B1028842F00202028004E01B
:101C3000028840F2FD331A400280704721B10288C9
:101C400042F00402028004E0028840F2FB331A40B2
:101C50000280704721B1828842F08002828004E0D5
:101C600082884FF67F731A4082807047028840F264
:101C7000F7331A40028002880A4302807047828844
:101C80004FF68F731A40828082880A4382807047A1
:101C900002894FF6F8731A40028102890A430281D1
:101CA000704702894FF67F731A40028102890A4306
:101CB00002817047818470478185704781867047B3
:101CC0000187704781877047A0F8401070470288ED
:101CD000D2B2028002880A43028070470146888E91
:101CE00070470146088F70470146888F704701464C
:101CF000B1F8400070470146888C70470146088D56
:101D0000704702460020138A0B400BB1012000E00F
:101D100000207047CA430282704730B50246002057
:101D200000230024158A05EA0103958905EA0104C8
:101D300013B10CB1012000E0002030BDCA43028283
:101D40007047000031490143314A1160704770B556
:101D5000002100230F22C47804B32D4C246804F41E
:101D6000E064C4F5E064210AC1F10403CA40447888
:101D700004FA03F18478144021430901254C0678C4
:101D8000A155047804F01F050124AC4005786D11BD
:101D9000AD0005F1E025C5F8004109E0047804F044
:101DA0001F050124AC401C4D0678761145F82640ED
:101DB00070BD1A4A0A400243154B1B1F1A60704738
:101DC00039B1134A121D12680243114B1B1D1A60D0
:101DD00006E00F4A121D126882430D4B1B1D1A604C
:101DE0007047042808D14FF0E021096941F004014F
:101DF0004FF0E022116107E04FF0E021096921F086
:101E000004014FF0E0221161704700000000FA0564
:101E10000CED00E000E400E080E100E080FFFF1F47
:101E20000CB50020019000904748006840F48030D5
:101E30004549086000BF4448006800F40030009045
:101E40000198401C0190009818B90198B0F5A06F56
:101E5000F1D13D48006800F4003010B1012000903D
:101E600001E0002000900098012844D13748006824
:101E700040F01000354908600846006820F0030073
:101E800008600846006840F0020008602E4840687C
:101E90002D4948600846406848600846406840F45C
:101EA000806048600846406820F47C10486008461E
:101EB000406840F4E81048600846006840F08070D0
:101EC000086000BF2048006800F000700028F9D0CA
:101ED0001D48406820F003001B49486008464068E0
:101EE00040F00200486000BF1748406800F00C0056
:101EF0000828F9D101E000BFFEE70CBD10B5FFF7DF
:101F00008FFF10BD10B51048006840F001000E4969
:101F10000860084640680E4908400B49486008467A
:101F200000680C490840084908600846006820F429
:101F3000802008600846406820F4FE0048600020C9
:101F40008860FFF7DBFF10BD001002400020024058
:101F50000000FFF8FFFFF6FE2DE9F04D81EA0304D3
:101F600004F0004B21F0004514464FF0000A23F026
:101F7000004150EA050220D054EA01021DD0C5F309
:101F80000A570246C5F31303C1F31300C1F30A56FF
:101F900040F4801543F48013A7EB0608101BD646C7
:101FA00008F2FD3873EB050002D308F1010801E0E7
:101FB00092185B41B8F1000F03DA00200146BDE83A
:101FC000F08D00204FF48011064684460EE0171B6A
:101FD00073EB050705D3121B63EB050306434CEABD
:101FE000010C49084FEA300092185B4150EA0107A2
:101FF000EDD152EA030012D082EA040083EA05011F
:10200000084305D0101BAB4106D20122002306E095
:1020100000224FF0004302E06FF0010253101AEB70
:1020200006004CEB085110EB0A0041EB0B01BDE838
:10203000F04D00F0BAB80EB540F2334102910021E4
:10204000CDE900110A460B4600F0BEF803B000BD12
:1020500000F0004230F000400AD0C10D01F560717F
:10206000C0F3160042EA0151C2084007114370470D
:1020700000200146704701F0004330B421F00041D8
:1020800050EA010206D00A0DA2F56072C1F31301F5
:10209000002A02DC30BC00207047440F44EAC1042F
:1020A000C100E01830BC00EBC25000F047B830B5BA
:1020B0000B46014600202022012409E021FA02F506
:1020C0009D4205D303FA02F5491B04FA02F52844A0
:1020D000151EA2F10102F1DC30BD2DE9F05F0546CD
:1020E000002092469B4688460646814640241BE0D7
:1020F000284641464746224600F01FFA53465A46B4
:10210000C01A914110D311461846224600F006FA33
:102110002D1A67EB01084F4622460120002100F0EE
:10212000FDF917EB00094E41201EA4F10104DFDC8C
:10213000484631462A464346BDE8F09F0029A8BFDD
:102140007047401C490008BF20F00100704710B4E0
:10215000B0FA80FC00FA0CF050EA010404BF10BC95
:10216000704749B1CCF1200421FA04F411FA0CF1C2
:1021700018BF012121430843A3EB0C01CB1D4FEAFB
:1021800000614FEA102042BF002010BC704700EBF6
:10219000C35010440029A4BF10BC7047401C490024
:1021A00008BF20F0010010BC704710B5141E73F179
:1021B000000408DA401C41F1000192185B411A4307
:1021C00001D120F0010010BD2DE9F04D92469B4653
:1021D00011B1B1FA81F202E0B0FA80F220329046F9
:1021E00000F09CF904460F4640EA0A0041EA0B0160
:1021F00053465A46084313D0114653EA010019D0FA
:10220000C8F14002504600F098F905460E46504687
:102210005946424600F082F9084305D0012004E007
:1022200020463946BDE8F08D0020054346EAE076B9
:102230002C4337430A986305E40AA0EB0800002208
:10224000FD0A44EA47540A3002D500200146E9E776
:10225000010510196941DDE9084500196941BDE82A
:10226000F04DA2E72DE9FE4F804681EA0300C00F42
:102270000C46009021F0004123F00045B8EB02002D
:10228000A94105D24046214690461C460B460246CF
:1022900023F00040104347D0270DC7F30A00C3F3D3
:1022A0000A510290401A019040286BDAC3F31300E0
:1022B00040F4801B0098924620B10023D2EB030A21
:1022C00063EB0B0B01985946C0F14002504600F0F9
:1022D00025F906460D4650465946019A00F03DF94B
:1022E00010EB08006141002487EA115284EAE77389
:1022F0001A4340D0009A62B3019A012A4FEA07526A
:1023000015DC001B61EB02014FF0004202EA0752AC
:10231000CDE90042001C41F5801132462B46FFF703
:1023200053FF03B0BDE8F08F40462146F9E7001B9C
:1023300061EB0201001C41F5801300185B4120187D
:10234000A2F5001747EB030140EAD570B6196D41BD
:1023500011E06D084FEA360645EAC0754FEA0752AC
:10236000001B61EB0201001C41F5801149084FEA96
:1023700030000019514132462B4603B0BDE8F04F02
:10238000FFF713BF0098012240000023D0EB0202A8
:1023900063EBE073009821464FEAE074B8EB00006D
:1023A00061EB0401E9E783F000435BE781F0004162
:1023B00058E72DE9FE4F81EA030404F0004421F0C0
:1023C000004100944FF0000B23F0004350EA010459
:1023D0005ED052EA03045BD0C3F30A54C1F30A553A
:1023E0002C44A4F2F3340194A0FB0254C1F3130172
:1023F00041F48011C3F3130343F4801301FB02443F
:1024000000FB034E840A970A44EA815447EA835743
:10241000A4FB076802958D0A05FB07854FEA932CFC
:1024200004FB0C542705029D4FEA065847EA16376D
:10243000B5EB08056EEB070C870E920E47EA811785
:1024400042EA8312A7FB0201B6EB0B0164EB000426
:102450002B0D43EA0C335E1844EB1C50DA46514610
:10246000E7FB0201C5F313044FEA0B3343EA1453AD
:102470004FEA0432019C43EA0603A4F10C040294DF
:10248000009CCDE900B4FFF79FFE03B0BDE8F08FDC
:1024900000200146F9E7C1F30A52C1F3130140F2EB
:1024A000FF3341F480119A4202DA0020014670475E
:1024B00040F233439A42A2F2334202DC524200F02D
:1024C0003CB800F02BB8000030B5041E71F10004D8
:1024D00004DB4FF00044404264EB0101141E73F131
:1024E000000405DB1C464FF00043524263EB04033B
:1024F000994208BF904230BD064C074D06E0E068A7
:1025000040F0010394E8070098471034AC42F6D33A
:10251000FDF712FE842E0008A42E0008202A04DBFA
:10252000203A00FA02F1002070479140C2F12003E6
:1025300020FA03F3194390407047202A04DB203A25
:1025400021FA02F00021704721FA02F3D040C2F1D3
:1025500020029140084319467047202A06DBCB171A
:10256000203A41FA02F043EAE07306E041FA02F34E
:10257000D040C2F120029140084319467047000044
:102580000FB4084B10B504A902AA039800F0DEF8B6
:10259000044602A9002000F070FC204610BC5DF843
:1025A00014FB00007B2E000802E008C8121F08C1BF
:1025B000002AFAD170477047002001E001C1121FC4
:1025C000002AFBD1704700002DE9FF5F82B0002197
:1025D000DDE90430020DDDF840B0034318D044F6C5
:1025E0001050A2F2FF3242431514119801281FD057
:1025F000A5EB0B00401C5FEA000A4FF000064E4FAF
:10260000DFF83891B046504615D5CAF1000413E002
:10261000119801244AA3012801D16FEA0B01029805
:10262000119AC0E90031C0E9024206B0BDE8F09F4E
:10263000CBF10000DFE704460021404A491842EB95
:102640000450CDE9001012E0E00707D032463B46C7
:1026500040464946FFF7ADFE8046894632463B4636
:1026600010461946FFF7A5FE06460F466410002CDB
:10267000EAD1DDE90401DDE90023BAF1000F06DA51
:10268000FFF797FE42464B46FFF793FE05E0FFF744
:1026900063FC42464B46FFF75FFC04460E460022B1
:1026A000284BFFF711FF03D84FF0FF30014607E03A
:1026B0000022254B20463146FFF7D4FDFFF7EBFE05
:1026C000102409E0002C0ADB0A220023FFF705FD95
:1026D000039B30321A55641E50EA0102F2D1641C89
:1026E000039AC4F111031444119A012A03D0012260
:1026F00008430DD10AE0084304D000204FF0110B2D
:10270000119072E7A3EB0B056D1E0DE05B4504DD38
:102710004FF0000205F1010504E003DA4FF000027A
:10272000A5F10105002AECD002981199C0E9023107
:10273000C0E9004579E70000000014400000F03FC8
:10274000300000000000F0430000E03F2DE9FF4FA3
:1027500095B09B468946064600250FE2252877D18D
:1027600000242746F84A0121059400E0044316F8A6
:10277000013F203B01FA03F01042F7D130782A28BC
:1027800011D06FF02F033078A0F13002092A16D84B
:10279000059A44F0020402EB820203EB4202104469
:1027A000761C0590EFE759F8042B0592002A03DA0E
:1027B000504244F40054059044F00204761C3078F2
:1027C0002E2816D116F8010F44F004042A280DD043
:1027D0006FF02F023078A0F13003092B09D807EBF6
:1027E000870302EB4303C718761CF3E759F8047B11
:1027F000761C30786C280FD006DC4C2817D068285F
:102800000DD06A2814D104E0742810D07A280FD192
:102810000DE044F400140AE044F4801401E044F4B0
:1028200040147278824202D104F58014761C761C22
:10283000307866280BD013DC582877D009DC0028C4
:1028400075D04528F6D04628F4D047281AD19DE106
:1028500018E0632835D0642879D0652812D195E135
:10286000702873D008DC6728F1D069286FD06E28F3
:102870000DD06F2806D1B5E073282CD0752875D0FF
:10288000782874D05A46179990476D1C75E1C4F3A7
:102890000250022809D003280DD0D9F800100428CE
:1028A0000DD00D6009F1040967E1D9F80010EA17AD
:1028B000C1E90052F6E7D9F800100D80F2E70D707B
:1028C000F0E719F8041B8DF8001000208DF80100C6
:1028D000EA46012003E059F804AB4FF0FF306107EE
:1028E0004FF0000102D40DE008F101018846B94221
:1028F0000FDA8045F8DB1AF808100029F4D108E057
:1029000008F1010188468142FADB1AF80810002913
:10291000F6D105985B46A0EB080721463846179A82
:1029200000F094FA284400EB080507E04DE029E1A7
:102930000DE01AF8010B5A4617999047B8F10108B3
:10294000F7D25B4621463846179A13E142E00A2245
:102950000092C4F302524FF0000A022A08D059F83C
:1029600004CB032A4FEAEC710AD00DE029E02AE0FB
:1029700009F1070121F00702F2E802C1914609E0DE
:102980000FFA8CFC4FEAEC71042A03D14FFA8CFC4D
:102990004FEAEC71002907DA0A460021DCF1000C4D
:1029A00061EB02012D2202E0220504D52B228DF8D5
:1029B0000420012203E0E20701D02022F7E790463D
:1029C00059E00A2102E010220DE010214FF0000A28
:1029D00000910BE010224FF0000A44F00404082795
:1029E000009203E008224FF0000A0092C4F3025262
:1029F000022A05D059F804CB0021032A08D009E0A7
:102A000009F1070121F00702F2E802C1914605E051
:102A10001FFA8CFC042A01D10CF0FF0C4FF00008C7
:102A2000220728D5702806D0009B83F0100353EAB4
:102A30000A0305D00EE040228DF80420012208E0B0
:102A40005CEA010206D030228DF804208DF80500E2
:102A500002229046009B83F0080353EA0A030AD13E
:102A60005CEA010201D1620705D530228DF804200D
:102A70004FF001087F1E582804D034A003900EA800
:102A800002900DE036A0F9E753466046009AFFF742
:102A900024FB84460398825C0298401E02900270D8
:102AA0005CEA0100F0D1029806A9081A00F1200A98
:102AB000600702D524F4803400E00127574502DD89
:102AC000A7EB0A0000E0002000EB0A010090059847
:102AD0004144401A0590E00306D45B462146179A0C
:102AE000059800F0B3F90544002706E001A85A460E
:102AF000C05D179990476D1C7F1C4745F6DBE003CE
:102B00000CD55B462146179A059800F09FF90544BD
:102B100004E030205A46179990476D1C0099481ED2
:102B200000900029F5DC08E0029802995A460078E6
:102B3000491C0291179990476D1CBAF10001AAF146
:102B4000010AF1DC65E1000009280100303132336F
:102B500034353637383961626364656600000000D9
:102B600030313233343536373839414243444546C3
:102B70000000000000F058F90544761C3078002869
:102B80007FF4ECAD19B02846BDE8F08F620700D4A1
:102B9000062709F1070222F0070CFCE80223E146B0
:102BA00003F000485FEA080C02D00FF2702C0DE031
:102BB0005FEA045C02D50FF2682C07E05FEAC47C90
:102BC00002D00FF2602C01E0AFF2700C4FF0FF3832
:102BD00023F00043CDF850C065280CD006DC452812
:102BE00009D046281DD047283DD13DE0662818D0A1
:102BF00067287ED138E00021112F01DB112000E091
:102C0000781CCDE9000106A90EA8FFF7DDFCDDE97F
:102C10000F010E9A03910021009207F1010A04911D
:102C20004DE04FF000400097CDE9011006A90EA835
:102C3000FFF7CAFCDDE90F0203920E9B11990022F7
:102C4000DDF80CA00093049211B9791C00EB010A85
:102C5000B7EB0A0004D4C0F1FF3007F1010A049079
:102C6000AAEB0700019044E0012F00DA01270021C0
:102C7000112F01DD112000E03846CDE9000106A941
:102C80000EA8FFF7A1FCDDE90F010E9A03910021C8
:102C900004910092BA4621070CD40399514500DAF9
:102CA0008A46BAF1010F05DD009AAAF10101515CD3
:102CB000302908D0B84202DA10F1040F06DA0121F7
:102CC000CDE9011015E0AAF10101E9E7002805DCD2
:102CD000049901440491AAEB000102E0411C514512
:102CE00000DD8A460499401A401C01904FF00040D4
:102CF0000290200704D40198504501DBCDF80480F0
:102D000000208DF84F0002980DF14F07B0F1004FF1
:102D100025D02B200E9002984FF0020800280CDAE4
:102D2000404202902D200E9007E00A210298FFF702
:102D3000BEF93031029007F8011DB8F10001A8F189
:102D40000108F2DC02980028EFD1791E0E98087075
:102D5000307800F0200040F0450007F8020D12A87E
:102D6000C01B00F107081498007800B1012000EBA7
:102D70000A01019801EBE07105984144401A401E98
:102D80000590E00306D45B462146179A059800F0AB
:102D90005DF805441498007818B15A461799904781
:102DA0006D1CE00324D55B462146179A059800F078
:102DB0004DF805441CE00498002807DBDDE9030119
:102DC000884203DD0098405C179901E01799302094
:102DD0005A469047049805F10105401C049001985B
:102DE000401E019004D12E205A46179990476D1C21
:102DF000BAF10001AAF1010ADDDC05E017F8010BC8
:102E00005A46179990476D1CB8F10001A8F10108C6
:102E1000F4DC5B462146179A0598ABE62D000000CE
:102E20002B000000200000002DE9F04104460025A1
:102E30001E461746880404D405E039462020B047D2
:102E40006D1C641EF9D52846BDE8F0812DE9F041DE
:102E5000044600251E469046C80301D5302700E0F1
:102E60002027880404D505E041463846B0476D1C4C
:102E7000641EF9D52846BDE8F0810A68531C0B6032
:102E800010707047A42E00080000002018000000F9
:102E9000A8250008BC2E000818000020C802000069
:102EA000B825000800000000000001020304010230
:0C2EB000030406070809020406080000DD
:0400000508000147A7
:00000001FF
