:020000040800F2
:100000000004002047010008510E0008530E0008AC
:10001000570E00085B0E00085F0E0008000000008D
:10002000000000000000000000000000630E000857
:10003000650E000800000000670E0008690E000849
:1000400067010008670100086701000867010008F0
:1000500067010008670100086701000867010008E0
:1000600067010008670100086701000867010008D0
:1000700067010008670100086701000867010008C0
:1000800067010008670100086701000867010008B0
:1000900067010008670100086701000867010008A0
:1000A0006701000867010008670100086701000890
:1000B000A70F0008D10F0008FB0F00086701000818
:1000C0006701000867010008670100086701000870
:1000D000670100083B180008751800086701000850
:1000E000AB0A000867010008670100086701000803
:1000F0006701000867010008670100086701000840
:100100006701000867010008251000086701000862
:10011000670100086701000867010008670100081F
:10012000670100086701000867010008670100080F
:10013000DFF80CD003F0AAFA00480047D70D0008FA
:1001400090040020704708488047084981F30888D8
:1001500007480047FEE7FEE7FEE7FEE7FEE7FEE7AB
:10016000FEE7FEE7FEE7FEE74501000890040020F9
:100170003101000870B505460E4614460020FA49C4
:100180000870284601F03BF9284601F0D6F92846C8
:1001900001F05CF920B91220F3490870002070BD0D
:1001A00000223146284601F07FF920B91320EE499C
:1001B00008700020F3E72146284601F0A5F920B990
:1001C0001520E94908700020E9E7284601F055F9B3
:1001D00020B91620E44908700020E0E70120DEE79E
:1001E00070B505460C4644F00C02E04801782846FC
:1001F000FFF7C0FF0A2000F02AFF24F0040040F0BF
:100200000802DA4801782846FFF7B4FF322000F0F0
:100210001EFF70BD70B504460D4629462046FFF707
:10022000DFFF70BD2DE9F04106460C46154604F08F
:10023000F007F02000EA041847EA05013046FFF70E
:10024000E9FF48EA05013046FFF7E4FFBDE8F08129
:1002500070B504460D46012229462046FFF7E2FF0D
:1002600070BD70B504460D46002229462046FFF7B2
:10027000D9FF70BDF8B506460D461446BCA000680F
:100280000090042C00DD03241DF804002844C0B2B3
:1002900040F080013046FFF7E4FFF8BD1CB50024B4
:1002A00006E06946B34801F03DFA044604B900E0AF
:1002B000F7E700BF1CBD10B5002435E04FF4FA701D
:1002C00000F0E0FE0022A9480178AB48FFF752FF9A
:1002D000A548007860B1EF21A84801F08FFA082105
:1002E000A64801F08BFAA0480178A44801F086FAEC
:1002F0004FF4FA7000F0C6FE08229C4801789E4830
:10030000FFF738FF9848007860B1EF219B4801F073
:1003100075FA0821994801F071FA934801789748D5
:1003200001F06CFA601CC4B2032CC7DB10BD70B5C1
:1003300004460D469148844203D129468D4801F078
:10034000E1F970BD0EB5012000904FF4A063632267
:1003500041F61F4101908A48006800F0C5FD8948B8
:10036000008889490968CDE90010884803888848D1
:10037000026888480168814801F0DCF9AFF2510158
:100380007E4801F094FAAFF2EB017D48006800F07E
:10039000E2FD8148008881490822814BCDE9002196
:1003A000029004227F49734801F084F9724801F0F9
:1003B00026F8FF21714801F021FAFF216F4801F072
:1003C0001DFAFFF778FF01216B48FFF74AFF022172
:1003D0006948FFF746FF61216748FFF739FF62214F
:1003E0006548FFF735FF30216348FFF731FF3121C2
:1003F0006148FFF72DFF32215F48FFF729FF0EBD4F
:10040000014601F00F000A0902EB820200EB4200F4
:10041000C0B2704701460A2091FBF0F200FB1210B7
:100420000A2291FBF2F240EA0210C0B2704770B5A6
:1004300003460C46032C01DA012000E00020181AC4
:1004400083B2642093FBF0F01946DD1703EB95753A
:1004500003EBA505281A4FF4C87593FBF5F5054481
:10046000601E514E56F8200028441044072590FB8A
:10047000F5F605FB160080B270BD70B5054600208C
:100480004A49087000BF4FF40031494802F055FF57
:100490000028F8D10121464802F064FE002409E05A
:1004A000B4F5004F04DBA02040490870002070BD67
:1004B000601C84B23F493E4802F02CFF0028EFD078
:1004C000002229463A4802F0A3FE002409E0B4F5D0
:1004D000004F04DBA120354908700020E7E7601CCD
:1004E00084B23549324802F015FF0028EFD00E21C2
:1004F0002F4802F087FE002409E0B4F5004F04DB2A
:10050000A2202A4908700020D1E7601C84B22A4941
:10051000891C274802F0FEFE0028EED00021244866
:1005200002F070FE002409E0B4F5004F04DBA320C4
:100530001E4908700020BAE7601C84B21E49891C5D
:100540001B4802F0E7FE0028EED00021184802F018
:1005500059FE002434E0B4F5004F2FDBA4201349EA
:1005600008700020A3E70000010000200000002028
:1005700000401454A80000209400002000380140DE
:1005800004000020180000201400002010000020AB
:100590000C000020080000201C0000201A00002091
:1005A000F8000020D80000204C000020200000208F
:1005B000005400400100030082000700601C84B268
:1005C000FC49FD4802F0A6FE0028C4D00121FA48EB
:1005D00002F0D4FD01206AE72DE9F04106460F46FE
:1005E00014461D460020F5490870304600F0F4FE20
:1005F000304600F0A2FF304600F014FF10B9012091
:10060000EE490870304600F021FF10B90220EB4996
:10061000087000223946304600F046FF28B9032012
:10062000E64908700020BDE8F0812146304600F020
:100630006BFF20B90420E14908700020F3E7304641
:1006400000F004FF20B90520DC4908700020EAE72B
:1006500001223946304600F027FF20B90620D7494D
:1006600008700020DFE707222946304600F090FF9F
:1006700020B90720D14908700020D4E7304600F0A7
:1006800063FF304600F0F9FE20B90920CB4908701D
:100690000020C8E70120C6E72DE9F041074688465B
:1006A00015461E460020C5490870384600F094FEE5
:1006B000384600F042FF384600F0B4FE28B9112059
:1006C000BE4908700020BDE8F081384600F0BEFE4B
:1006D00020B91220B94908700020F4E700224146F1
:1006E000384600F0E1FE20B91320B449087000201C
:1006F000E9E72946384600F007FF20B91420AF4942
:1007000008700020DFE700240BE0315D384600F080
:10071000FBFE20B91520A94908700020D3E7601C12
:10072000C4B2072CF1DB384600F00EFF384600F06B
:10073000A4FE20B91620A14908700020C3E70120BB
:10074000C1E79E4890F9000070472DE9FF4700245B
:1007500000250026002700200290039080468AE0B2
:100760006946974800F0DEFF8046B8F1000F00D1DF
:1007700082E09DF80000032803D09DF800000428C3
:1007800039D1DDF801000290BDF80500ADF80C008C
:100790009DF807008DF80E009DF8000004280AD18E
:1007A000002406E002A9085DFFF734FE02A90855FF
:1007B000641C072CF6DB9DF80E00FFF721FE00F508
:1007C000FA659DF80D00FFF71BFE06469DF80C002C
:1007D000FFF716FE07463A4631462846FFF727FE42
:1007E000C0B28DF80B0002AB7648027876480178EB
:1007F0007648FFF751FF02AB7248027872480178E1
:100800007248FFF7E9FE18B3002413E09DF80000DA
:10081000012809D09DF80000032805D002A9085D31
:10082000FFF7EEFD02A9085502A8015D684800F037
:10083000E5FF641C072CE9DB9DF80000012807D0C8
:100840009DF80000032803D00A21614800F0D6FF7C
:10085000FFF777FF78B1FF215D4800F0CFFFFF2160
:100860005B4800F0CBFFFFF76CFF00F0FF09494643
:10087000574800F0C3FF73E700BFBDE8FF8770B5BE
:1008800004460D465248844203D129464C4800F0A4
:1008900039FF70BD3EB5002000904FF4E063632245
:1008A00041F61F4101904B48006800F01DFB4A488B
:1008B00000884A490968CDE9001049480388494839
:1008C000026849480168424800F034FF3F4800F0A0
:1008D00083FDAFF255013E4800F0E9FFAFF29511FC
:1008E0003C48006800F037FB022040490880084679
:1008F00000883F4908223F4BCDE9002102900422A5
:100900003D492F4800F0D6FE0121314800F076FF26
:100910002D480078FFF7B1FD02212D4800F06EFF51
:10092000FF212B4800F06AFFFF21294800F066FFF5
:10093000FFF707FF30B1FFF704FFC4B22146244898
:1009400000F05CFF3EBD08B52C480078012859D165
:1009500000202A490870F0211D4800F04FFFF021C7
:100960001B4800F04BFF264800880112184800F091
:1009700045FF23480178164800F040FF20480088D2
:10098000092813D0EF21124800F038FFEF2110485A
:1009900000F034FFEF210E4800F030FFEF210C484B
:1009A00000F02CFFEF210A4800F028FF0020144936
:1009B00008802CE084000700005400402000002044
:1009C0002C0100201F0000201E0000201801002024
:1009D00000380140240000203800002034000020AE
:1009E000300000202C000020280000203C000020C7
:1009F0003A0000207C0100205C0100203E00002025
:100A000040000020F7480088401CF6490880012279
:100A10000921F548FFF72EFCF2480288F3A1684649
:100A200002F046FE9DF80010EF48FFF711FC08BDEC
:100A30001FB50121084601F065FA0121042001F0EB
:100A400061FA4FF40040ADF80C0004208DF80F005F
:100A500003208DF80E0003A9E54800F0B7FF0F2131
:100A6000002001F0B9F84FF40040019000208DF80B
:100A700008000C208DF8090001208DF80A0001A85B
:100A800002F0AEFC4FF4C06002F03CFA28208DF872
:100A9000000000208DF801008DF8020001208DF883
:100AA0000300684602F033FA1FBD3EB50024D1A111
:100AB00003C9CDE900014FF4004002F007FD012811
:100AC0007DD1C00302F013FD4FF40041CB4801F08B
:100AD00010F80028F4D10120C94908706B46C948B4
:100AE0000278C9480178C948FFF776FD00BF0BE0DE
:100AF0001DF80400FFF784FC0DF804001DF8041035
:100B0000C34800F07BFE641C072CF1DBFF21C048CA
:100B100000F074FEFF21BE4800F070FEBD48407832
:100B20009DF8011088420FD00121AF48FFF799FBD3
:100B30000221AD48FFF795FB002403E0FF20B549F3
:100B40000855641C072CF9DBB24880799DF8061023
:100B5000884224D000221146A348FFF78BFB9DF862
:100B60000620ADA102A802F0A3FD32219E48FFF7A6
:100B70006FFB30219C48FFF76BFB9DF808109A48EB
:100B8000FFF766FB9DF809109748FFF761FB2D21E1
:100B90009548FFF75DFB9DF806009E4988719D48CA
:100BA00040799DF8051088421ED0002205218E480C
:100BB000FFF760FB9DF8052098A102A800E099E0EE
:100BC00002F076FD9DF808108748FFF741FB9DF87D
:100BD00009108548FFF73CFB2D218348FFF738FBC0
:100BE0009DF805008B4948718A4800799DF80410EA
:100BF000884220D0002208217B48FFF73BFB9DF86C
:100C0000042086A102A802F053FD9DF80810764842
:100C1000FFF71EFB9DF809107348FFF719FB202111
:100C20007148FFF715FB20216F48FFF711FB9DF876
:100C3000040078490871774880789DF8021088424E
:100C40001CD0012200216848FFF714FB9DF8022008
:100C500072A102A802F02CFD9DF808106248FFF76F
:100C6000F7FA9DF809106048FFF7F2FA3A215E485A
:100C7000FFF7EEFA9DF802006649887065484078F3
:100C80009DF8011088421CD0012203215648FFF72D
:100C9000F1FA9DF8012061A102A802F009FD9DF87A
:100CA00008105148FFF7D4FA9DF809104E48FFF795
:100CB000CFFA3A214C48FFF7CBFA9DF8010055498D
:100CC0004870012206214848FFF7D4FA9DF8002019
:100CD00052A102A802F0ECFC9DF808104248FFF770
:100CE000B7FA9DF809104048FFF7B2FA2E213E48A6
:100CF000FFF7AEFA3EBD3EB5FFF79AFE0120009029
:100D00004FF4C06340F2E73241F61F41019045487D
:100D100000F0EAF84448008844490968CDE9001029
:100D2000434803884348026843480168384800F054
:100D300001FDAFF2B541364800F0B9FDAFF2F55113
:100D4000384800F008F9AFF20141364800F003F9E5
:100D500002203A4908800846008839490822394B60
:100D6000CDE90021029004223749384800F0A2FC66
:100D70000121274800F042FD244800F02DFB1A48CD
:100D800000F03DFB20480078FFF777FB0221204868
:100D900000F034FDFF211E4800F030FDFF211C480B
:100DA00000F02CFDFFF7CDFC30B1FFF7CAFCC4B258
:100DB0002146174800F022FD0C210B48FFF751FA9D
:100DC00001210948FFF74DFA02210748FFF749FAC8
:100DD000FFF771FA3EBD02F007FCFFF78CFF00BF82
:100DE000FEE7000040000020940000202531640050
:100DF00000100140FFFFFFFFFFFFFF000008014060
:100E00003E0000201F0000201E00002018010020CE
:100E10000038014042000020253264002530326451
:100E200000000000000400403800002034000020D2
:100E3000300000202C000020280000203C00002072
:100E40003A0000207C0100205C0100202C010020E1
:100E5000704700BFFEE700BFFEE700BFFEE700BF30
:100E6000FEE770477047704770470000FEB50446C4
:100E70000D461646B4F1804F04D10121084601F019
:100E80004EF816E08548844204D10121022001F089
:100E900046F80EE08248844204D10121042001F08A
:100EA0003EF806E07F48844203D10121082001F08A
:100EB00036F80121204602F021F8ADF80460ADF8C3
:100EC00000500020ADF80600ADF80200694620464B
:100ED00001F09FFA01221146204601F03BFD01215D
:100EE000204601F01CFDFEBD2DE9F84304460E46E8
:100EF00017461D46DDE908893A4631462046FFF788
:100F0000B5FF284601F0FEFFB4F1804F03D11C204D
:100F10008DF8000013E06148844203D11D208DF854
:100F200000000CE05E48844203D11E208DF80000D2
:100F300005E05C48844202D132208DF800008DF833
:100F400001808DF8029001208DF80300684601F0C1
:100F5000DEFFBDE8F88310B502460B46B2F1804FC4
:100F600001D151480DE04D4CA24201D14F4808E05B
:100F70004B4CA24201D14E4803E04A4CA24200D160
:100F80004C4800210BE050F821409C4200D110BD9C
:100F900050F8214014B940F82130F8E7491C0A29DB
:100FA000F1DB00BFF3E710B50121880701F0A6FFD0
:100FB000002409E03C4850F8240000B906E03A4912
:100FC00051F824008047641C0A2CF3DB00BF10BDDD
:100FD00010B50121314801F091FF002409E03348A8
:100FE00050F8240000B906E0304951F82400804749
:100FF000641C0A2CF3DB00BF10BD10B5012128488A
:1010000001F07CFF002409E0294850F8240000B9D1
:1010100006E0274951F824008047641C0A2CF3DBC2
:1010200000BF10BD10B501211E4801F067FF00246C
:1010300009E0204850F8240000B906E01D4951F8A5
:1010400024008047641C0A2CF3DB00BF10BD01465E
:1010500001EBC1024FF0E0235A6100229A610122A4
:101060001A6100BF4FF0E022106900F001021AB1CE
:1010700000F48032002AF5D000224FF0E0231A61FC
:101080009A61704730B50446002504E04FF47A7049
:10109000FFF7DDFF6D1CA542F8D330BD0004004012
:1010A00000080040000C00409C010020C40100200A
:1010B000EC01002014020020F8B504460D46164647
:1010C0001F46264884420FD12548007800F00100D1
:1010D00050B90121042000F015FF2148008840F09C
:1010E00001001F49088024E01E4884420FD11C489B
:1010F000007800F0020050B90121082000F002FF42
:101100001748008840F002001549088011E0164891
:1011100084420ED11248007800F0040048B9012141
:10112000102000F0EFFE0E48008840F004000C494B
:101130000880ADF800508DF803608DF802706946A4
:10114000204600F043FCF8BD70B504460D4603236D
:10115000102229462046FFF7AFFF70BD000801406E
:101160007C000020000C01400010014010B500235D
:101170001360036813B90B6803600CE00368136025
:1011800002E013685B68136013685B68002BF8D19A
:101190000B681468636010BD08B1026802B970473B
:1011A0000268526812B900220260F8E702685268C9
:1011B0000A60002203685A600A68026000BFEEE716
:1011C00002460AB9002070470123114601E0496830
:1011D0005B1C48680028FAD11846F4E72DE9F04175
:1011E00004460E46A06818BB606848B9206870B114
:1011F0002068A06004F11C012046FFF7CDFF06E047
:101200006068A06004F11C01201DFFF7C5FFA06805
:1012100010B90020BDE8F0810020E060002504E066
:101220000020A168096848556D1C2069A842F7D8BC
:10123000D4E90301884206D2A0680068E1684654F8
:10124000E068401CE0600027D4E90301884201D136
:1012500001271CE06069D0B1208BC0B1218BE06810
:10126000884214D3012700250EE0A0680168E068D9
:10127000401B401E095C208B401B401E6269105CB5
:10128000814200D000276D1C208BA842EDD8012F91
:1012900008D104F11C0204F108012046FFF766FFA3
:1012A0000020A0600120B5E770B504460E460CB9D9
:1012B000002070BD208C618C084380B1B4F92C00F3
:1012C00008280ADAB4F92C1004F124004654A08D41
:1012D000401C00B2A0850120EBE70020E9E70120D7
:1012E0002084B4F92C0000280EDD002506E004F16E
:1012F0002400415D2046FFF771FF6D1CB4F92C00FE
:10130000A842F4DC0020A08531462046FFF766FFA6
:10131000002020840120CCE770B504460D460CB1B6
:10132000206808B9002070BD208C618C084308B18A
:101330000020F8E7012060842269206801682846BF
:1013400002F07CF904F11C022146201DFFF70EFF7C
:1013500004F11C012046FFF71FFF002060840120DC
:10136000E1E7000010B586B004460121A06800F056
:10137000C9FDA089E1890843ADF804001C208DF85F
:10138000070003208DF8060001A9206900F01EFB6C
:101390000121206800F0C3FD606801F021FEBE4815
:1013A00005900020ADF808004BF6FF70ADF80A007C
:1013B0000020ADF80C004FF48060ADF80E00000185
:1013C000ADF8100002A9606801F02AFE01216068F2
:1013D00001F0A4FE06B010BD10B504464FF4001095
:1013E0002060AE4860600820A0604020A08180207E
:1013F000E081AB4820612046FFF7B4FF10BD10B577
:1014000004464FF480002060A64860600820A06079
:10141000C001A0814000E081A14820612046FFF783
:10142000A1FF10BD70B50446002506E0B5F5004FDC
:1014300001DB002070BD681C85B24FF4003160688C
:1014400001F07BFF0028F1D10120F3E770B50446DD
:101450000121606801F086FE002506E0B5F5004F29
:1014600001DB002070BD681C85B28F49606801F007
:1014700051FF0028F2D00120F4E770B504460121A5
:10148000606801F07BFE002506E0B5F5004F01DB4A
:10149000002070BD681C85B28449606801F04DFF72
:1014A0000028F2D10120F4E72DE9F04105460F466E
:1014B000164632463946686801F0AAFE86B900240D
:1014C00007E0B4F5004F02DB0020BDE8F081601CAE
:1014D00084B27749686801F01DFF0028F1D011E05F
:1014E000012E0FD1002406E0B4F5004F01DB0020EF
:1014F000EBE7601C84B26C49491C686801F00AFF84
:101500000028F1D00120E0E770B504460E463146D0
:10151000606801F077FE002506E0B5F5004F01DBBD
:10152000002070BD681C85B26149891C606801F0AB
:10153000F1FE0028F1D00120F3E710B504460121A7
:10154000606801F027FE10BD10B5044600216068F8
:1015500001F020FE10BD70B504460D460121606803
:1015600001F018FE002606E0B6F5004F01DB002072
:1015700070BD701C86B24C493F31606801F0CAFEF4
:101580000028F1D0606801F03FFE28700120EFE7ED
:101590002DE9F04104460E461746002519E04FF0AC
:1015A000000809E0B8F5004F02DB0020BDE8F0813B
:1015B00008F101001FFA80F83B493F31606801F0F3
:1015C000A9FE0028EED0606801F01EFE7055681C70
:1015D000C5B2BD42E3DB0120E8E770B504460D4625
:1015E0000021606801F0D6FD002606E0B6F5004F48
:1015F00001DB002070BD701C86B22B493F31606852
:1016000001F088FE0028F1D0606801F0FDFD28702F
:101610000120EFE770B505460E4614462846FFF751
:1016200015FF08B9002070BD002231462846FFF79B
:101630003BFF08B90020F6E721462846FFF764FF84
:1016400008B90020EFE72846FFF717FF08B9002088
:10165000E9E70120E7E770B505460E46144628463F
:10166000FFF7F4FE08B9002070BD0122314628467C
:10167000FFF71AFF08B90020F6E721462846FFF7D2
:10168000ACFF08B90020EFE72846FFF7F6FE08B9DF
:101690000020E9E70120E7E7A086010000540040B0
:1016A000000C014000580040010003001000001031
:1016B000820007002DE9F84F04460E46174698466B
:1016C000DDE90BABDDF82890002060842084A08544
:1016D000C4F81090C4F814A0A4F818B000250DE0C8
:1016E00005FB098046F8350006EBC500009004F1C3
:1016F0001C026946201DFFF739FD6D1CBD42EFDB62
:10170000BDE8F88F70B504460D4629462046FFF720
:10171000CBFD70BD70B504460D4629462046FFF747
:10172000C3FD70BD70B504460D4629462046FFF73F
:10173000F3FD70BD2DE9F04385B004460D46164615
:101740001F46DDE90C894FF4A06001F0DBFB674820
:10175000844203D125208DF8000005E064488442CE
:1017600002D126208DF8000001208DF80100002014
:101770008DF8020001208DF80300684601F0C7FBD8
:101780005A48844205D1012144F2040000F0BAFB1A
:101790000AE05748844207D10121042000F0B2FB3F
:1017A0000121480400F0BBFB0323182239463046D0
:1017B000FFF782FC0323042249464046FFF77CFCE6
:1017C00001950020ADF80800ADF80A00ADF80C0056
:1017D000ADF810000C20ADF80E0001A9204600F075
:1017E0003EFC012240F22551204600F0B2FC0121CE
:1017F000204600F0A2FC05B0BDE8F08370B50446B9
:101800000D462946204600F000FD00BF80212046FD
:1018100000F052FD0028F9D070BD70B505460C46A9
:101820002021284600F048FD08B9002070BD284658
:1018300000F0EFFC20700120F8E738B500200090A0
:1018400011E000240CE02B4850F8240000B909E016
:10185000284850F824209DF8001024489047641C24
:101860000A2CF0DB00BF69462048FFF7D6FF0028AE
:10187000E7D138BD38B50020009011E000240CE01D
:101880001D4850F8240000B909E01B4850F82420F6
:101890009DF8001016489047641C0A2CF0DB00BF2E
:1018A00069461348FFF7B9FF0028E7D138BD10B5E6
:1018B00002460B460D4CA24201D10E4903E00C4CEE
:1018C000A24200D10C4900200BE051F820409C427C
:1018D00000D110BD51F8204014B941F82030F8E78C
:1018E000401C0A28F1DB00BFF3E70000003801408C
:1018F000004400403C0200206402002010B5044671
:10190000C649601A8C422FD009DCC548204480B1FA
:10191000B0F5806F16D0B0F5006F4AD11BE0B0F57E
:10192000806F2AD0B0F5006F30D0B0F5406F40D155
:1019300035E00121042000F0FFFA0021042000F02E
:10194000FBFA37E00121082000F0F6FA0021082018
:1019500000F0F2FA2EE00121102000F0EDFA002153
:10196000102000F0E9FA25E00121202000F0E4FA3F
:101970000021202000F0E0FA1CE00121402000F0CE
:10198000DBFA0021402000F0D7FA13E0012180208B
:1019900000F0D2FA0021802000F0CEFA0AE0012106
:1019A000080200F0C9FA00214FF4807000F0C4FA78
:1019B00000E000BF00BF10BD10B50121084600F0D7
:1019C000BBFA0021012000F0B7FA10BD2DE9F0416B
:1019D000024600250026002000230024002791F85D
:1019E00003C00CF00F0591F803C00CF0100CBCF113
:1019F000000F03D091F802C04CEA050591F800C031
:101A0000BCF1000F31D0146800202BE04FF0010C26
:101A10000CFA00F3B1F800C00CEA03069E4220D194
:101A200083004FF00F0C0CFA03F7BC4305FA03FCDC
:101A30004CEA040491F803C0BCF1280F06D14FF022
:101A4000010C0CFA00FCC2F814C00AE091F803C0C3
:101A5000BCF1480F05D14FF0010C0CFA00FCC2F8A4
:101A600010C0401C0828D1D31460B1F800C0BCF1EC
:101A7000FF0F34DD546800202EE000F1080C4FF019
:101A8000010808FA0CF3B1F800C00CEA03069E4204
:101A900021D183004FF00F0C0CFA03F7BC4305FA79
:101AA00003FC4CEA040491F803C0BCF1280F05D1F3
:101AB00000F1080C08FA0CF8C2F8148091F803C081
:101AC000BCF1480F07D100F1080C4FF0010808FAEB
:101AD0000CF8C2F81080401C0828CED35460BDE832
:101AE000F0814FF6FF710180022181700421C170E5
:101AF00070470246002093680B400BB1012000E0C4
:101B0000002070470146886880B270470246002076
:101B1000D3680B400BB1012000E000207047014664
:101B2000C86880B2704701617047416170470AB16F
:101B3000016100E041617047C16070474FF480323D
:101B40000A438261816182618269826970470246CB
:101B50000020344B18684FF68073184040EA02109A
:101B60000843304B186070472F49C8617047F0B583
:101B70000A4600230024002100252A4E7168C0F384
:101B8000034583B200F44016B6F5401F08D121F09A
:101B90007061244E766826F07066224F7E6012E0F7
:101BA00000F48016B6F5801F06D1032606FA05F468
:101BB000A14341F0706106E0460D360103FA06F6D6
:101BC000B14341F0706122B1460D360103FA06F6C9
:101BD0003143144E7160F0BD30B500228B071C0FED
:101BE0000F2303FA04F20F4B08338C1053F8243000
:101BF00093430C4C08348D1044F8253023468C1048
:101C000053F824308C07240F00FA04F42343054CC6
:101C100008348D1044F8253030BD00000014014018
:101C200000F8FEBF0000014000002042DE480068CE
:101C300040F00100DC49086008464068DB49084084
:101C4000D949486008460068D9490840D649086023
:101C50000846006820F4802008600846406820F4A8
:101C6000FE004860002088607047CF49096821F471
:101C70008031CD4A11601146096821F4802111603C
:101C8000B0F5803F03D0B0F5802F0ED106E0C649F5
:101C9000096841F48031C44A116007E0C24909680B
:101CA00041F4A021C04A116000E000BF00BF7047AE
:101CB00010B501460022002300204A11012A02D15A
:101CC000B94C236806E0022A02D1B74C236A01E02E
:101CD000B54C636A01F01F02012494401C400CB112
:101CE000012000E0002010BD38B500200090002445
:101CF000002500BF3120FFF7DBFF05460098401CA0
:101D000000901DB90098B0F5A06FF3D13120FFF716
:101D1000CFFF08B1012400E00024204638BD014671
:101D20000020A14A106820F0F80040EAC1001060CD
:101D30007047A04908607047024600209A4B5868D7
:101D400020F47C1042EA01031843974B5860704717
:101D500098490866704701460020934A506820F071
:101D600003000843506070478F48406800F00C0043
:101D70007047014600208C4A506820F0F00008436C
:101D80005060704701460020874A506820F4E060A8
:101D900008435060704701460020834A506820F491
:101DA000605040EAC1005060704729B17E4A527AC3
:101DB00002437D4B5A7204E07B4A527A82437A4B4B
:101DC0005A7270477B49D83108607047014600203D
:101DD000754A506820F44040084350607047002125
:101DE000714A20321170704A82F82010012802D006
:101DF00004280AD104E001216B4A2032117005E069
:101E00000521694A2032117000E000BF00BF704711
:101E10006949086070476449096A0143624A11626E
:101E20007047654944390860704730B50021002289
:101E3000002400235C4D6D6805F00C0121B10429DC
:101E400005D0082923D105E05C4D056022E05B4DFB
:101E500005601FE0544D6D6805F47012022505EB16
:101E60009242514D6D6805F480341CB9544D554370
:101E700005600BE04C4D6D6805F400351DB1504D0B
:101E80005543056002E04D4D5543056002E04B4D62
:101E9000056000BF00BF444D6D6805F0F001090901
:101EA000484D6B5C0568DD4045603F4D6D6805F44D
:101EB000E061090A434D6B5C4568DD4085603A4D41
:101EC0006D6805F46051C90A3E4D6B5C4568DD40A4
:101ED000C560354D6D6805F44041890B3A4D6B5C2A
:101EE000C568B5FBF3F5056130BD29B12E4A5269CD
:101EF00002432D4B5A6104E02B4A526982432A4B1C
:101F00005A61704729B1284A92690243264B9A6167
:101F100004E0254A92698243234B9A61704729B1B4
:101F2000214AD2690243204BDA6104E01E4AD26999
:101F300082431D4BDA61704729B11B4AD2680243C4
:101F4000194BDA6004E0184AD2688243164BDA6013
:101F5000704729B1144A12690243134B1A6104E015
:101F6000114A12698243104B1A6170471249403975
:101F7000086070470F49C86470470B49C8717047C3
:101F80000948406A40F0807007494862704701463E
:101F90000020054A92680A400AB1012000E00020B2
:101FA0007047014988727047001002400000FFF836
:101FB000FFFFF6FE000042428004424200127A0017
:101FC00000093D007E0000208E00002010B5044670
:101FD000D749601A8C422BD006DCD648204498B1F1
:101FE000B0F5806F38D119E0B0F5806F2AD0B0F528
:101FF0006C4F31D101218803FFF79EFF00214FF480
:102000008040FFF799FF28E001214804FFF7A1FF76
:1020100000214FF40030FFF79CFF1EE001218804EF
:10202000FFF797FF00214FF48020FFF792FF14E0A5
:102030000121C804FFF78DFF00214FF40020FFF7B6
:1020400088FF0AE001210805FFF783FF00214FF414
:102050008010FFF77EFF00E000BF00BF10BD2DE93C
:10206000F04786B005460E460024A24600BF00BFDA
:1020700000272F462C8A4CF6FF700440F08804435A
:102080002C82AC894EF6F3100440B08831890843A5
:10209000718908430443AC81AC8A4FF6FF40044089
:1020A000B0890443AC8201A8FFF7BFFEA248874273
:1020B00002D1DDF810A001E0DDF80CA00AEBCA00A7
:1020C00000EB0A1031688900B0FBF1F86420B8FB1E
:1020D000F0F004012009642101FB1089322000EB9B
:1020E0000910B0FBF1F000F00F0004432C8106B0A2
:1020F000BDE8F0874FF41651016000218180C18056
:1021000001810C21418100218181704710B5024677
:102110000020108A4FF2FF0318400B884C8823439D
:102120008C882343CC8823431843108210BD0021A0
:10213000018041808180C180704721B1828942F451
:102140000052828104E082894DF6FF731A40828139
:102150007047F0B5034600240026002500201846ED
:10216000C1F3421401F01F06012707FA06F5012CFE
:1021700001D10C3004E0022C01D1103000E0143009
:102180001AB107682F43076002E00768AF43076092
:10219000F0BD1AB1838A0B43838202E0838A8B43AA
:1021A00083827047028A4FF6F0731A400282028AD5
:1021B0000A430282704782894FF2FF731A4082817C
:1021C00082890A438281704721B1828942F00202EA
:1021D000828104E082894FF6FD731A408281704744
:1021E000028A4FF6DF731A400282028A0A43028291
:1021F000704721B1028A42F48042028204E0028ADE
:102200004BF6FF731A4002827047C1F308028280C6
:10221000704701468888C0F308007047818941F003
:10222000010181817047028BD2B20283028B42EAA4
:10223000012202837047028B02F47F420283028BE9
:102240000A430283704721B1828A42F020028282CF
:1022500004E0828A4FF6DF731A408282704721B110
:10226000828A42F01002828204E0828A4FF6EF7383
:102270001A408282704721B1828A42F0080282822B
:1022800004E0828A4FF6F7731A4082827047828A8E
:102290004FF6FB731A408282828A0A438282704719
:1022A00021B1828A42F00202828204E0828A4FF6E1
:1022B000FD731A40828270470246002013880B404B
:1022C0000BB1012000E000207047CA430280704734
:1022D00070B502460B460024002100250020C3F300
:1022E000421503F01F01012606FA01F1012D02D16A
:1022F0009689314006E0022D02D1168A314001E074
:10230000968A31401C12012606FA04F416883440DD
:1023100011B10CB1012000E0002070BD10B5002209
:1023200000230A1201249440A3B2DC43048010BDB0
:10233000004C004000BCFFBF0038014010B504460F
:10234000F749601A8C4245D00CDCB4F1804F1DD0A7
:10235000F448204418B3B0F5806F29D0B0F5006F71
:1023600054D12EE0B0F5806F3DD0B0F58E3F03D054
:10237000B0F5923F4AD13FE00121C802FFF7DCFDF2
:1023800000214FF40060FFF7D7FD40E0012108462F
:10239000FFF7DFFD00210120FFF7DBFD37E0012122
:1023A0000220FFF7D6FD00210220FFF7D2FD2EE02C
:1023B00001210420FFF7CDFD00210420FFF7C9FD16
:1023C00025E001210820FFF7C4FD00210820FFF7C8
:1023D000C0FD1CE001211020FFF7BBFD00211020F3
:1023E000FFF7B7FD13E001212020FFF7B2FD002128
:1023F0002020FFF7AEFD0AE001214803FFF79CFD16
:1024000000214FF40050FFF797FD00E000BF00BF30
:1024100010BD028802F08F020280CA884B881A43DE
:1024200003881A4302808A8882850A880285BE4A08
:10243000904202D0BD4A904201D10A7A028601221E
:102440008282704770B5002400220023058C4FF66D
:10245000FE7635400584028C8388048B4FF68F7599
:102460002C400D882C43751E2A400D892A434D8827
:102470002A43CD888586AC4DA84202D0AB4DA842F8
:1024800013D14FF6F7752A404D892A434FF6FB7555
:102490002A408D882A4347F6FF652B4047F6FF55B3
:1024A0002B408D892B43CD892B4383800483028469
:1024B00070BD70B5002400220023058C4FF6EF7626
:1024C00035400584028C8388048B48F6FF752C40C8
:1024D0000D884FF6FF7606EA05252C434FF6DF758B
:1024E0002A400D8906EA05152A434D8806EA051596
:1024F0002A43CD8805878C4DA84202D08B4DA84237
:102500001DD14FF67F752A404D894FF6FF7606EABA
:1025100005152A434FF6BF752A408D8806EA051532
:102520002A4347F6FF352B4047F2FF752B408D8934
:1025300006EA85052B43CD8906EA85052B43838072
:102540000483028470BD70B5002400220023058C32
:102550004FF6FF6635400584028C8388848B4FF6E6
:102560008F752C400D882C434FF6FF552A400D895E
:102570004FF6FF7606EA05252A434D8806EA05252B
:102580002A43CD888587684DA84202D0674DA8426E
:102590001DD14FF2FF752A404D894FF6FF7606EAAE
:1025A00005252A434FF6FF352A408D8806EA052582
:1025B0002A4346F6FF752B4045F6FF752B408D8963
:1025C00006EA05152B43CD8906EA05152B438380C2
:1025D0008483028470BD70B5002400220023058C22
:1025E0004EF6FF7635400584028C8388848B48F64E
:1025F000FF752C400D884FF6FF7606EA05252C4323
:102600004DF6FF752A400D8906EA05352A434D88A7
:1026100006EA05352A43CD88A0F84050424DA8422D
:1026200002D0424DA84207D1C3F30D038D894FF666
:10263000FF7606EA85152B4383808483028470BD70
:10264000828B4FF2FF331A408283828B4FF6FF73E7
:1026500003EA01231A4382837047F0B50C461546FE
:10266000002100220026078C4EF6FF7C07EA0C07AB
:102670000784818B028C4FF6FF7707EA043640F619
:10268000FF4739404FF6FF7707EA05274FF6FF7CF3
:102690000CEA033C47EA0C0739434DF6FF773A4012
:1026A00046F480573A4381830284F0BD828B4FF613
:1026B000F3731A408283828B0A4382837047F0B59A
:1026C0000C461546002100220026078C4FF6FF6CB1
:1026D00007EA0C070784818B028C4FF6FF7707EA25
:1026E00004264FF60C7739404FF6FF7707EA0317B9
:1026F0002F4339434FF6FF573A4046F480773A4329
:1027000081830284F0BD028B4FF2FF331A400283B3
:10271000028B4FF6FF7303EA01231A4302837047CB
:102720000010004000FCFFBF002C014000340140BD
:10273000F0B50C461546002100220026078C4FF606
:10274000EF7C07EA0C070784018B028C4FF6FF77BA
:1027500007EA041640F6FF4739404FF6FF7707EACD
:10276000033739434FF6FF7707EA052739434FF61A
:10277000DF773A4046F010073A4301830284F0BD08
:10278000028B4FF6F3731A400283028B0A430283D3
:102790007047F0B50C46154600210022068C4FF616
:1027A000FE773E400684018B028C4FF60C7631405A
:1027B0007E1C06EA03162E4331437E1E324044F04F
:1027C0000106324301830284F0BD70B505460C4614
:1027D000208850B92389A28861882846FFF7D9FF4D
:1027E000E1882846FFF7CCFF25E0208804280AD19D
:1027F0002389A28861882846FFF79AFFE188284646
:10280000FFF781FF17E0208808280AD12389A288D2
:1028100061882846FFF753FFE1882846FFF746FF07
:1028200009E02389A28861882846FFF716FFE1881E
:102830002846FFF705FF70BD2DE9F04105460C461F
:1028400000260127608808B9022600E00026A0883B
:10285000012801D1022700E001272088A0B923899F
:10286000A28861882846FFF794FFE1882846FFF791
:1028700087FF23893A4631462846FFF759FFE1880A
:102880002846FFF740FF13E02389A2886188284685
:10289000FFF74EFFE1882846FFF735FF23893A46C8
:1028A00031462846FFF775FFE1882846FFF768FFA5
:1028B000BDE8F0810A884B881A438B881A43CB887D
:1028C0001A430B891A434B891A438B891A43A0F880
:1028D000442070474FF6FF71818000210180C18044
:1028E0004180017270470021018041808180C18058
:1028F000018141818181C181704700210180418036
:10290000012181800021C180018170470021018067
:1029100041808180C180018141818181704721B1E5
:10292000028842F00102028004E0028840F2FE3395
:102930001A400280704731B1B0F8442042F400429E
:10294000A0F8442005E0B0F84420C2F30E02A0F83D
:10295000442070471AB183890B43838102E0838945
:102960008B43838170478182704741EA0203A0F85C
:10297000483070471AB183890B43838102E0838911
:102980008B438381704701894FF6F87211400181B2
:1029900070470A46002101894FF68F731940114391
:1029A0000181704730B504460D4629462046FFF7A1
:1029B000F0FF208940F00700208130BD2DE9F04173
:1029C00004460D4616461F46602D06D13B460122A1
:1029D00031462046FFF7ACFE05E03B46012231467A
:1029E0002046FFF7D6FE29462046FFF7D2FF208972
:1029F00040F007002081BDE8F08170B50C46002151
:102A00000189C9B244EA02054FF6FF7606EA0326B9
:102A100035432943018170BD2DE9F04105460E463D
:102A200017469846002443463A4631462846FFF763
:102A3000E4FF2C894FF6F870044044F007044FF689
:102A40008F70044044F070042C81BDE8F081F0B533
:102A500004460D4616461F463B463246294620464A
:102A6000FFF7CBFF208940F480402081F0BD018535
:102A7000828270470A460021018840F28F33194054
:102A8000114301807047F0B50C4615461E460021E3
:102A9000002200230189028B038C4FF6F87739401E
:102AA00021434FF6FC473A4040F201173A434FF6B4
:102AB000DD773B404FF6FF7707EA06172F433B438E
:102AC000018102830384F0BD0A460021018B4FF689
:102AD0008F7319401143018370470A460021018B0F
:102AE00048F6FF7319404FF6FF7303EA02231943B8
:102AF000018370470A460021818B4FF68F7319407E
:102B00001143818370470A460021818B48F6FF7389
:102B100019404FF6FF7303EA02231943818370477C
:102B200021B1028842F08002028004E0028840F273
:102B30007F331A400280704721B1828842F004023C
:102B4000828004E082884FF6FB731A4082807047CF
:102B500021B1828842F00802828004E082884FF628
:102B6000F7731A408280704721B1828842F00102D7
:102B7000828004E082884FF6FE731A40828070479C
:102B80000A460021018B4FF6F77319401143018368
:102B900070470A460021018B4FF2FF7319404FF630
:102BA000FF7303EA02231943018370470A46002199
:102BB000818B4FF6F77319401143818370470A46A2
:102BC0000021818B4FF2FF7319404FF6FF7303EA28
:102BD00002231943818370470A460021018B4FF677
:102BE000FB7319401143018370470A460021018B92
:102BF0004FF6FF3319404FF6FF7303EA02231943E0
:102C0000018370470A460021818B4FF6FB73194000
:102C10001143818370470A460021818B4FF6FF33B1
:102C200019404FF6FF7303EA02231943818370476B
:102C30000A460021018B4FF67F731940114301832F
:102C400070470A460021018BC1F30E014FF6FF7356
:102C500003EA02231943018370470A460021818B4E
:102C60004FF67F7319401143818370470A46002154
:102C7000818BC1F30E014FF6FF7303EA0223194360
:102C8000818370470A460021018C4FF6FD7319407D
:102C90001143018470470A460021018C4FF6F773F7
:102CA00019401143018470470A460021018C4FF6F8
:102CB000DF7319404FF6FF7303EA021319430184CF
:102CC00070470A460021018C4FF67F7319404FF67A
:102CD000FF7303EA02131943018470470A46002177
:102CE000018C4FF6FF5319404FF6FF7303EA02239E
:102CF0001943018470470A460021018C4FF2FF738B
:102D000019404FF6FF7303EA022319430184704709
:102D10000A460021018C4DF6FF7319404FF6FF73F0
:102D200003EA023319430184704710B5038C012470
:102D30008C40A3430384038C02FA01F4A4B223431E
:102D4000038410BD10B5038C04248C40A34303847A
:102D5000038C02FA01F4A4B22343038410BD30B5FE
:102D6000038C01248C40A343038409B1082918D1A2
:102D700000F1180303EB61031B684FF68F742340C7
:102D800000F1180404EB6104236000F1180303EB65
:102D900061031B68134300F1180404EB6104236012
:102DA0001FE00B1FC3F34E0400F118031B5948F634
:102DB000FF7423400C1FC4F34E0500F11804635147
:102DC0000B1FC3F34E0400F118031B594FF6FF7499
:102DD00004EA022423430C1FC4F34E0500F1180437
:102DE000635130BD21B1028842F00202028004E04A
:102DF000028840F2FD331A400280704721B10288F8
:102E000042F00402028004E0028840F2FB331A40E0
:102E10000280704721B1828842F08002828004E003
:102E200082884FF67F731A4082807047028840F292
:102E3000F7331A40028002880A4302807047828872
:102E40004FF68F731A40828082880A4382807047CF
:102E500002894FF6F8731A40028102890A430281FF
:102E6000704702894FF67F731A40028102890A4334
:102E700002817047818470478185704781867047E1
:102E80000187704781877047A0F84010704702881B
:102E9000D2B2028002880A43028070470146888EBF
:102EA00070470146088F70470146888F704701467A
:102EB000B1F8400070470146888C70470146088D84
:102EC000704702460020138A0B400BB1012000E03E
:102ED00000207047CA430282704730B50246002086
:102EE00000230024158A05EA0103958905EA0104F7
:102EF00013B10CB1012000E0002030BDCA430282B2
:102F00007047000031490143314A1160704770B584
:102F1000002100230F22C47804B32D4C246804F44C
:102F2000E064C4F5E064210AC1F10403CA404478B6
:102F300004FA03F18478144021430901254C0678F2
:102F4000A155047804F01F050124AC4005786D11EB
:102F5000AD0005F1E025C5F8004109E0047804F072
:102F60001F050124AC401C4D0678761145F826401B
:102F700070BD1A4A0A400243154B1B1F1A60704766
:102F800039B1134A121D12680243114B1B1D1A60FE
:102F900006E00F4A121D126882430D4B1B1D1A607A
:102FA0007047042808D14FF0E021096941F004017D
:102FB0004FF0E022116107E04FF0E021096921F0B4
:102FC00004014FF0E0221161704700000000FA0593
:102FD0000CED00E000E400E080E100E080FFFF1F76
:102FE00010B50446F348204418B1B0F5806F14D1F1
:102FF00009E001214805FEF7ACFF00214FF4001065
:10300000FEF7A7FF0AE001218805FEF7A2FF0021D5
:103010004FF48000FEF79DFF00E000BF00BF10BD31
:103020002DE9F04385B004460D460026B14604273D
:10303000DFF88483A6884FF6C07006406846FEF726
:10304000F4FEDDF80880DD48B8FBF0F01FFA80F9E7
:1030500046EA0906A68020884FF6FE7108402080C7
:103060000026D749E86888420CD8E8684000B8FBD9
:10307000F0F087B2042F00DA04273E4309F1010083
:10308000208427E068884BF6FF71884206D1E86803
:1030900000EB4000B8FBF0F087B209E0E86800EB15
:1030A000C00101EB0010B8FBF0F087B247F4804795
:1030B000C7F30B0008B947F0010747F40040064387
:1030C0004FF4967009FB00F04FF47A7190FBF1F029
:1030D000401C2084A683208840F0010020802688A0
:1030E0004FF6F53006402888E988084306432680D5
:1030F0002889A9880843208105B0BDE8F083002114
:1031000001804BF6FF71418000218180C1804FF426
:103110008041018141F28831C160704721B102884C
:1031200042F00102028004E002884FF6FE731A406A
:103130000280704721B1828842F40062828004E0FC
:1031400082884FF2FF731A408280704721B18288D3
:1031500042F48052828004E082884EF6FF731A4067
:103160008280704721B1028842F48072028004E0BC
:1031700002884FF6FF631A400280704721B102882F
:1031800042F40072028004E002884FF6FF531A40B6
:103190000280704721B1028842F48062028004E01C
:1031A00002884FF6FF331A40028070470A4600211A
:1031B00081894FF60173194002F0FE0319438181A2
:1031C000704721B1828942F00102828104E0828944
:1031D0004FF6FE731A408281704721B1028842F097
:1031E0004002028004E002884FF6BF731A4002805A
:1031F00070471AB183880B43838002E083888B4336
:1032000083807047018270470146088AC0B27047C8
:1032100012B141F0010102E04FF6FE731940018244
:1032200070470246505A704721B1028842F400426A
:10323000028003E00288C2F30E0202807047B1F5FB
:10324000005F04D1028842F40052028004E0028848
:103250004DF6FF731A400280704721B1028842F494
:103260008052028004E002884EF6FF731A4002800A
:103270007047B1F5006F04D1028842F40062028009
:1032800004E002884FF2FF731A400280704721B1B8
:10329000028842F02002028004E002884FF6DF73C9
:1032A0001A40028070470146088B0012704721B116
:1032B000028842F01002028004E002884FF6EF73A9
:1032C0001A400280704721B9028842F080020280D1
:1032D00004E002884FF67F731A4002807047B1F510
:1032E000804F05D0828B4BF6FF731A40828303E038
:1032F000828B42F480428283704710B501460020E1
:10330000002300228B8A0A8B120443EA020424F071
:103310007F4010BD70B50246002400250023002028
:10332000958A138B1B0445EA030626F07F448C42E2
:1033300001D1012000E0002070BD0CB50246002044
:1033400000230193009300920B0F019321F07F4122
:10335000019B1BB1009B1433009303E0090C009BFD
:1033600018330093009B1B680B400BB1012000E059
:1033700000200CBD002221F07F42D343838270479E
:1033800030B5024600200023948801F0E06504EA8D
:10339000154321F07F41948A0C4014B10BB10120F8
:1033A00000E0002030BD002221F07F42D343838221
:1033B0007047000000ACFFBF00127A0040420F00CF
:1033C000A086010000204C490860091D0860091D05
:1033D0000860091D08604948474914310860704772
:1033E0008179002946D04449096802689143424ADC
:1033F0001160111D0968026891433F4A121D116056
:1034000001793F4A1144D1F800140268114302794E
:103410003B4B1A44C2F80014374908310968026866
:103420009143354A08321160111D096802689143C1
:10343000314A0C321160417910290ED1111F0968EF
:10344000026811432C4A08321160111D0968026894
:103450001143294A0C32116018E04179284A11447D
:10346000D1F80014026811434279254B1A44C2F87E
:1034700000140BE00179224A1144D1F800140268CB
:10348000914302791E4B1A44C2F800147047002180
:10349000016001710C214171002181717047164951
:1034A000103109680143144A103211607047014617
:1034B0000020114A143212680A400AB1012000E0CB
:1034C000002070470C491431086070470146002005
:1034D0000022094B1B6803EA0102074B14331B68E7
:1034E0000B4013B10AB1012000E0002070470249EF
:1034F000143108607047000000040140FFFF07001E
:10350000000001400CB50020019000904748006881
:1035100040F480304549086000BF4448006800F42A
:10352000003000900198401C0190009818B9019853
:10353000B0F5A06FF1D13D48006800F4003010B143
:103540000120009001E0002000900098012844D163
:103550003748006840F010003549086008460068A8
:1035600020F0030008600846006840F00200086090
:103570002E4840682D494860084640684860084623
:10358000406840F4806048600846406820F47C1041
:1035900048600846406840F4E81048600846006803
:1035A00040F08070086000BF2048006800F00070A4
:1035B0000028F9D01D48406820F003001B494860EE
:1035C0000846406840F00200486000BF1748406865
:1035D00000F00C000828F9D101E000BFFEE70CBDA7
:1035E00010B5FFF78FFF10BD10B51048006840F010
:1035F00001000E490860084640680E4908400B4922
:103600004860084600680C490840084908600846B8
:10361000006820F4802008600846406820F4FE001E
:10362000486000208860FFF7DBFF10BD00100240FB
:10363000002002400000FFF8FFFFF6FE40EA010311
:103640009B0703D009E008C9121F08C0042AFAD258
:1036500003E011F8013B00F8013B521EF9D270471C
:1036600030B50B46014600202022012409E021FA52
:1036700002F59D4205D303FA02F5491B04FA02F54F
:103680002844151EA2F10102F1DC30BD064C074DA5
:1036900006E0E06840F0010394E807009847103422
:1036A000AC42F6D3FCF748FD443A0008643A0008FF
:1036B0000FB4084B10B504A902AA039800F01CF837
:1036C000044602A9002000F0B8F9204610BC5DF8BD
:1036D00014FB00003B3A000802E008C8121F08C1B2
:1036E000002AFAD170477047002001E001C1121F83
:1036F000002AFBD1704700002DE9FF4F8BB08846B0
:103700000546002606E025280BD0DDE90D1290477E
:103710006D1C761C28780028F5D10FB03046BDE826
:10372000F08F0024A146A2460122AE4900E00443E6
:1037300015F8013F203B02FA03F00842F7D1287840
:103740002A2810D06FF02F022878A0F13001092923
:1037500015D809EB890102EB410144F0020400EBAA
:1037600001096D1CF0E758F8041B5FEA010903D555
:1037700044F40054C9F1000944F002046D1C287897
:103780002E2817D115F8010F44F004042A280ED072
:103790006FF02F022878A0F1300109290AD80AEB2E
:1037A0008A0102EB410100EB010A6D1CF2E758F8B7
:1037B00004AB6D1C28786C280FD006DC4C2817D081
:1037C00068280DD06A2814D104E0742810D07A2813
:1037D0000FD10DE044F400140AE044F4801401E039
:1037E00044F440146978814202D104F580146D1CC0
:1037F0006D1C2878692865D006DC00288DD06328E8
:1038000027D0642806D15DE06E2808D073282AD01E
:10381000752877D0DDE90D129047761CE0E0C4F3FF
:103820000250022809D003280DD0D8F8001004282F
:103830000DD00E6008F10408D2E0D8F80010F2179D
:10384000C1E90062F6E7D8F800100E80F2E70E70CA
:10385000F0E718F8041B8DF8001000208DF8010027
:10386000EB46012003E058F804BB4FF0FF3061073E
:103870004FF0000701D40AE07F1C57450DDA87425C
:10388000FADB1BF807100029F6D106E07F1C8742FF
:10389000FCDB1BF807100029F8D1DDE90D23A9EBAB
:1038A00007008146214600F0B1F83044C61904E013
:1038B000DDE90D121BF8010B90477F1EF8D221465F
:1038C000484688E058F8040BC4F302514FF00A0B45
:1038D000032900D100B2042900D140B2002802DA45
:1038E00040422D2102E0210505D52B218DF8241021
:1038F000012104E006E0E10710D02021F6E708AF3F
:10390000089113E058F8040BC4F302514FF00A0B6E
:10391000032900D180B2042900D1C0B20021EEE712
:103920005946FFF79DFE303107F8011D0028F7D1F9
:10393000ADEB070000F1200B600702D524F48034C2
:1039400001E04FF0010ADA4502DDAAEB0B0000E0CE
:103950000020824600EB0B0108980144A9EB01000E
:103960000A90E00306D4DDE90D2321460A9800F011
:103970004DF806444FF0000908E009A911F80900C4
:10398000DDE90D12904709F10109761C0899894576
:10399000F3DBE0030CD5DDE90D2321460A9800F0A6
:1039A00035F8064404E0DDE90D1230209047761C1E
:1039B000BAF10001AAF1010AF5DC05E0DDE90D121A
:1039C00017F8010B9047761CBBF10001ABF1010B1E
:1039D000F4DC0A982146DDE90D2300F005F80644E1
:1039E0006D1C97E6092801002DE9F04104460025E9
:1039F0001E461746880404D405E039462020B04707
:103A00006D1C641EF9D52846BDE8F0812DE9F04112
:103A1000044600251E469046C80301D5302700E025
:103A20002027880404D505E041463846B0476D1C80
:103A3000641EF9D52846BDE8F0810A68531C0B6066
:103A400010707047643A00080000002094000000E5
:103A5000D8360008F83A000894000020FC03000063
:103A6000E83600087F0000000004004000C20100AA
:103A70000008014000020000000801400004EFFFC0
:103A80000000D000000000000004004000C201005F
:103A90000008014000020000000801400004EFFFA0
:103AA0000000000000000000000000000000000016
:103AB00000000000030000000200000005000000FC
:103AC00000000000030000000500000001000000ED
:103AD00004000000060000000200000004000000D6
:103AE00000000000000001020304010203040607B5
:083AF0000809020406080000A9
:0400000508000147A7
:00000001FF
